:100000000C9434000C9449000C9449000C94490061
:100010000C9449000C9449000C9449000C9449003C
:100020000C9449000C9449000C9449000C94550020
:100030000C945F000C944B000C9449000C94490004
:100040000C9449000C9449000C9449000C9449000C
:100050000C9449000C9449000C9449000C944900FC
:100060000C9449000C94490011241FBECFEFD8E036
:10007000DEBFCDBF11E0A0E0B1E0EAEBF1E002C0ED
:1000800005900D92AC30B107D9F70E94CC000C94CA
:10009000DB000C9400001F920F920FB60F921124F8
:1000A0000F900FBE0F901F9018951F920F920FB6D2
:1000B0000F9211240F900FBE0F901F9018951F9252
:1000C0000F920FB60F9211240F900FBE0F901F903A
:1000D00018958093C4001092C50086E08093C200FA
:1000E00088E18093C10008959091C00095FFFCCFF6
:1000F0008093C6000895CF93DF93EC018991181681
:100100001CF0DF91CF9108950E947400F7CF809189
:10011000C00087FFFCCF8091C6000895EF92FF9248
:100120000F931F93CF93DF938C01D62F7C01C0E0F8
:100130000E948700CF5FF70181937F01CD1710F4F4
:100140008D30B1F7C00FD12FD11D1882DF91CF9123
:100150001F910F91FF90EF900895F89410928500F1
:100160001092840010928000E1E8F0E080818961C3
:1001700080838FED93EE90938900809388008FE3C6
:100180009DEE90938B0080938A00EFE6F0E08081F3
:1001900087608083789408950E94AD0088E690E09F
:1001A0000E94690080E091E00E947B0081E084B9B8
:0A01B00090E080E00895F894FFCF7E
:0C01BA00436F6E6E65637465640A0D008F
:00000001FF
