:100000000C9434000C943E000C943E000C943E0082
:100010000C943E000C943E000C943E000C943E0068
:100020000C943E000C943E000C943E000C943E0058
:100030000C943E000C943E000C943E000C943E0048
:100040000C943E000C943E000C943E000C943E0038
:100050000C943E000C943E000C943E000C943E0028
:100060000C943E000C943E0011241FBECFEFD8E04C
:10007000DEBFCDBF0E9460000C9465000C940000B0
:10008000F89410928000E1E8F0E010821092850070
:10009000109284008081896180838FED93EE90932C
:1000A0008900809388008FE39DEE90938B0080936E
:1000B0008A00EFE6F0E0808187608083789408957D
:0E00C0000E94400090E080E00895F894FFCF89
:00000001FF
