:100000000C9434000C9451000C9451000C94510049
:100010000C9451000C9451000C9451000C9451001C
:100020000C9451000C9451000C9451000C94F0006D
:100030000C940E010C94BB000C9451000C945100D4
:100040000C9451000C9451000C9451000C945100EC
:100050000C9451000C9451000C9451000C945100DC
:100060000C9451000C94510011241FBECFEFD8E026
:10007000DEBFCDBF11E0A0E0B1E0E8E5F3E002C0F3
:1000800005900D92AC30B107D9F721E0ACE0B1E0BA
:1000900001C01D92A132B207E1F70E9488010C94C1
:1000A000AA010C9400008CEF8AB983E084B908950A
:1000B000282F30E0883088F49BB121E030E0082E12
:1000C00001C0220F0A94EAF72095292301C0660F88
:1000D0008A95EAF7262B2BB9089545B128503109A6
:1000E00081E090E0022E01C0880F0A94EAF7809523
:1000F000842301C0660F2A95EAF7862B85B90895F7
:10010000DF92EF92FF920F931F93CF93DF93062F0F
:10011000C1E0D0E002C0CC0FDD1F6A95E2F77C01A0
:1001200082E0D82EF701619171917F016C237D23CC
:10013000002E02C0769567950A94E2F78D2D0E94F5
:100140005800D394FAE0DF12EDCFDF91CF911F91E9
:100150000F91FF90EF90DF900895CF93DF93D82F0A
:10016000C2E06D2F8C2F0E945800CF5FCA30C9F7B4
:10017000DF91CF9108951F920F920FB60F92112425
:100180008F939F9380911F01909120018130910561
:10019000B9F048F00297D9F09F918F910F900FBE60
:1001A0000F901F9018958FE39DEE9093850080939C
:1001B000840081E090E09093200180931F01ECCFB8
:1001C0008FE79AED9093850080938400E5CF10929D
:1001D0008500109284001092200110921F01DCCF44
:1001E0001F920F920FB60F9211248F939F938091BD
:1001F0001F0190912001019751F480910C018031F1
:1002000030F082E090E09093200180931F019F9155
:100210008F910F900FBE0F901F9018951F920F9205
:100220000FB60F9211240F900FBE0F901F901895CC
:100230008093C4001092C50086E08093C20088E1DC
:100240008093C10008959091C00095FFFCCF8093EA
:10025000C6000895CF93DF93EC01899118161CF026
:10026000DF91CF9108950E942301F7CF8091C000C4
:1002700087FFFCCF8091C6000895EF92FF920F9305
:100280001F93CF93DF938C01D62F7C01C0E00E9497
:100290003601CF5FF70181937F01CD1710F48D30C8
:1002A000B1F7C00FD12FD11D1882DF91CF911F91CF
:1002B0000F91FF90EF900895F8941092850010929E
:1002C000840010928000E1E8F0E080818961808301
:1002D0008FED93EE90938900809388008FE39DEEDD
:1002E00090938B0080938A00EFE6F0E08081876036
:1002F00080837894089520E031E0009711F4822FF4
:1003000008952327AC014150510984239523F5CF4B
:100310000E945C0188E690E00E94180180E091E074
:100320000E942A010E9453008FEF9FEF90931001CB
:1003300080930F0185E090E0909314018093130166
:1003400062E08FE091E00E94800010922001109204
:080350001F01FFCFF894FFCF5D
:0C035800436F6E6E65637465640A0D00EF
:00000001FF
