:100000000C9434000C9451000C9451000C94510049
:100010000C9451000C9451000C9451000C9451001C
:100020000C9451000C9451000C9451000C9400025B
:100030000C94BF000C9427010C9451000C945100B7
:100040000C9451000C9451000C9451000C945100EC
:100050000C9451000C9451000C9451000C945100DC
:100060000C9451000C94510011241FBECFEFD8E026
:10007000DEBFCDBF11E0A0E0B1E0E6ECF4E002C0ED
:1000800005900D92AC30B107D9F721E0ACE0B1E0BA
:1000900001C01D92AF31B207E1F70E9441020C94FA
:1000A00061020C9400008CEF8AB983E084B9089552
:1000B000282F30E0883088F49BB121E030E0082E12
:1000C00001C0220F0A94EAF72095292301C0660F88
:1000D0008A95EAF7262B2BB9089545B128503109A6
:1000E00081E090E0022E01C0880F0A94EAF7809523
:1000F000842301C0660F2A95EAF7862B85B90895F7
:10010000DF92EF92FF920F931F93CF93DF93062F0F
:10011000C1E0D0E002C0CC0FDD1F6A95E2F77C01A0
:1001200082E0D82EF701819191917F018C239D234C
:10013000002E02C0969587950A94E2F761E0892B1C
:1001400009F060E08D2D0E945800D394FAE0DF1290
:10015000E9CFDF91CF911F910F91FF90EF90DF904A
:100160000895CF93DF93D82FC2E06D2F8C2F0E947C
:100170005800CF5FCA30C9F7DF91CF9108951F9221
:100180000F920FB60F9211242F933F934F935F93CB
:100190006F937F938F939F93AF93BF93EF93FF934F
:1001A00080911D0190911E010197029718F480E043
:1001B0000E94B100FF91EF91BF91AF919F918F91FC
:1001C0007F916F915F914F913F912F910F900FBE53
:1001D0000F901F9018958093C4001092C50086E080
:1001E0008093C20088E18093C10008959091C0007F
:1001F00095FFFCCF8093C6000895CF93DF93EC0169
:10020000899118161CF0DF91CF9108950E94F60095
:10021000F7CF8091C00087FFFCCF8091C600089582
:10022000FC0184E0660F771F8A95E1F76150710940
:100230008091C00087FD03C061157105B9F791E099
:10024000672B09F090E090838091C60008951F927B
:100250000F920FB60F9211241F932F933F934F933A
:100260005F936F937F938F939F93AF93BF93EF931E
:10027000FF93CF93DF931F92CDB7DEB780911D011F
:1002800090911E018130910541F1B8F0029779F10A
:100290000F90DF91CF91FF91EF91BF91AF919F911F
:1002A0008F917F916F915F914F913F912F911F910E
:1002B0000F900FBE0F901F90189580E00E94B10024
:1002C0008FE39DEE909385008093840081E090E021
:1002D00090931E0180931D01DBCF81E00E94B1004D
:1002E0008FE79AED9093850080938400D1CF81E0D1
:1002F0000E94B1001092850010928400198264E679
:1003000070E0CE0101960E941001182F64E670E0A3
:10031000CE0101960E9410019981911109C0E12F2F
:10032000F0E0EE0FFF1FE45FFE4F90E091838083CB
:1003300010921E0110921D01ABCFEF92FF920F930E
:100340001F93CF93DF938C01D62F7C01C0E00E94D6
:100350000901CF5FF70181937F01CD1710F48D3034
:10036000B1F7C00FD12FD11D1882DF91CF911F910E
:100370000F91FF90EF900895F894109285001092DD
:10038000840010928000E1E8F0E080818961808340
:100390008FED93EE90938900809388008FE39DEE1C
:1003A00090938B0080938A00EFE6F0E08081876075
:1003B00080837894089520E031E0009711F4822F33
:1003C00008952327AC014150510984239523F5CF8B
:1003D0000F931F93CF938C01C2E0F801819191910B
:1003E0008F010E94DB0161E0811160E08C2F0E948F
:1003F0005800CF5FCA3089F7CF911F910F910895B0
:100400001F920F920FB60F9211242F933F934F9389
:100410005F936F937F938F939F93AF93BF93EF936C
:10042000FF9380911D0190911E01019761F46091ED
:100430001C016031C8F481E0860F80931C018CE0C0
:1004400091E00E948000FF91EF91BF91AF919F9149
:100450008F917F916F915F914F913F912F910F906D
:100460000FBE0F901F90189582E090E090931E01B0
:1004700080931D018CE091E00E94E80110921C0124
:10048000E2CF0E94BC0188E690E00E94EB0080E091
:1004900091E00E94FD000E94530081E00E94B100A3
:1004A0008FE190E0909317018093160186E190E030
:1004B000909319018093180110921E0110921D0152
:0604C000FFCFF894FFCF0E
:0C04C600436F6E6E65637465640A0D0080
:00000001FF
